:100000000C9435000C945D000C945D000C945D0024
:100010000C945D000C945D000C945D000C945D00EC
:100020000C945D000C945D000C945D000C94CF0169
:100030000C945D000C945D000C94A6010C945D0082
:100040000C945D000C945D000C945D000C945D00BC
:100050000C945D000C945D000C945D000C945D00AC
:100060000C945D000C945D00510111241FBECFEF74
:10007000D8E0DEBFCDBF11E0A0E0B1E0E0E4F4E005
:1000800002C005900D92A830B107D9F723E0A8E08F
:10009000B1E001C01D92A33BB207E1F710E0C5E358
:1000A000D0E004C02197FE010E941802C433D1079A
:1000B000C9F70E942A010C941E020C940000E091E2
:1000C0001A03F0911B03818180FD289A80FF2898F4
:1000D00080818BB93296F0931B03E0931A038091D1
:1000E000180390911903E817F90741F4809116035A
:1000F0009091170390931B0380931A03089587B17F
:10010000877C87B988B1886388B91BB828988FEF36
:100110008AB9209A08952AE0FC0111922A95E9F7FC
:10012000FC011286138614861586089542E2CEE6F7
:10013000D0E0FF24FA94EE24EA9400E010E030E0EE
:1001400087E0830F642F0E94F801292F392F81E067
:1001500090E0222311F080E090E0080F191FC80101
:10016000885A9F4FBE010E940402FB01E050FF4FDE
:100170008081281718F0E0E0F0E002C0E1E0F1E053
:10018000C8018E5B9F4FBE010E940402DB01A0509C
:10019000BF4F8C91281718F080E090E002C082E8F1
:1001A00090E0E82BF92BC8018C96BE010E94040256
:1001B000DB01A050BF4F8C91281718F080E090E031
:1001C00002C084E490E0E82BF92BC8014696BE01FA
:1001D0000E940402DB01A050BF4F8C91281718F039
:1001E00080E090E002C088E290E0E82BF92BC801A3
:1001F000BE010E940402DB01A050BF4F8C91281762
:1002000018F080E090E002C080E190E0E82BF92B4C
:10021000EBB995B19E7F9F2B95B9083183E0180704
:1002200009F08ECFEBB8289A8FEF25E030E090E010
:10023000981718F4FBB8289A02C01BB828989F5F3B
:100240009F3FB1F72150310991F7815071F71BB8E9
:10025000289873CF0E947F00E1E8F0E08081887FDA
:100260008083109285001092840082E390E0909346
:100270008900809388008FE590E09093B00380938D
:10028000AF03AFE6B0E08C9182608C937894A0E8E5
:10029000B0E08C9182608C938081816080830E9429
:1002A000960088E091E09093AE038093AD038EE1D9
:1002B00093E00E948B008CE293E00E948B008AE323
:1002C00093E00E948B0088E493E00E948B0086E517
:1002D00093E00E948B0084E693E00E948B0082E70B
:1002E00093E00E948B0080E893E00E948B008EE8F0
:1002F00093E00E948B008CE993E00E948B001092A7
:10030000AA031092AB031092AC0388E191E09093A2
:1003100017038093160326E133E0309319032093EB
:10032000180390931B0380931A0390931D038093EB
:100330001C03FC0180911803909119038E179F07ED
:1003400021F0108211823296F5CF08951F920F92FC
:100350000FB60F9211242F933F934F935F936F9398
:100360007F938F939F93AF93BF93EF93FF93E0910E
:10037000B103F091B203309709F00995FF91EF9125
:10038000BF91AF919F918F917F916F915F914F91AD
:100390003F912F910F900FBE0F901F9018951F92B5
:1003A0000F920FB60F9211242F933F934F935F93A9
:1003B0006F937F938F939F93AF93BF93EF93FF932D
:1003C000E091AF03F091B003309709F00995FF91E8
:1003D000EF91BF91AF919F918F917F916F915F91BD
:1003E0004F913F912F910F900FBE0F901F90189536
:1003F000991B79E004C0991F961708F0961B881F77
:100400007A95C9F780950895AA1BBB1B51E107C0D7
:10041000AA1FBB1FA617B70710F0A61BB70B881F94
:10042000991F5A95A9F780959095BC01CD01089523
:10043000EE0FFF1F0590F491E02D0994F894FFCF83
:08044000000103070A10162356
:00000001FF
