S01700004763634170706C69636174696F6E312E737265635B
S11300000C9437000C945F000C945F000C945F0018
S11300100C945F000C945F000C945F000C945F00E0
S11300200C945F000C945F000C945F000C948B01A3
S11300300C945F000C945F000C9462010C945F00BC
S11300400C945F000C945F000C945F000C945F00B0
S11300500C945F000C945F000C945F000C945F00A0
S11300600C945F000C945F001001450155011124AC
S11300701FBECFEFD8E0DEBFCDBF11E0A0E0B1E0FE
S1130080E8EBF3E002C005900D92A830B107D9F770
S113009021E0A8E0B1E001C01D92A13DB207E1F763
S11300A010E0C7E3D0E004C02197FE010E94D40110
S11300B0C433D107C9F70E940C010C94DA010C94E3
S11300C0000087B1877C87B988B1886388B91BB879
S11300D028988FEF8AB9209A08952AE0FC0111929A
S11300E02A95E9F7FC01128613861486158608956D
S11300F042E2CEE6D0E0FF24FA94EE24EA9400E053
S113010010E030E087E0830F642F0E94B401292FB0
S1130110392F81E090E0222311F080E090E0080F75
S1130120191FC801885A9F4FBE010E94C001FB01DC
S1130130E050FF4F8081281718F0E0E0F0E002C0A3
S1130140E1E0F1E0C8018E5B9F4FBE010E94C00157
S1130150DB01A050BF4F8C91281718F080E090E08D
S113016002C082E890E0E82BF92BC8018C96BE010E
S11301700E94C001DB01A050BF4F8C91281718F0DA
S113018080E090E002C084E490E0E82BF92BC80101
S11301904696BE010E94C001DB01A050BF4F8C9166
S11301A0281718F080E090E002C088E290E0E82B85
S11301B0F92BC801BE010E94C001DB01A050BF4F52
S11301C08C91281718F080E090E002C080E190E064
S11301D0E82BF92BEBB995B19E7F9F2B95B908318C
S11301E083E0180709F08ECFEBB8289A8FEF25E04B
S11301F030E090E0981718F4FBB8289A02C01BB8B6
S113020028989F5F9F3FB1F72150310991F78150A2
S113021071F71BB8289873CF0E9461000E94780080
S113022088E091E09093A8018093A70188E191E090
S11302300E946D0086E291E00E946D0084E391E0EB
S11302400E946D0082E491E00E946D0080E591E0DF
S11302500E946D008EE591E00E946D008CE691E0B5
S11302600E946D008AE791E00E946D0088E891E0A9
S11302700E946D0086E991E00E946D001092A40135
S11302801092A5011092A6010895E9EAF1E0108206
S113029011821282138215821682178210861186A9
S11302A012861386148615860895E7EBF1E014860A
S11302B0158616861786108A118A128A138A148A5A
S11302C0158A08951F920F920FB60F9211242F933F
S11302D03F934F935F936F937F938F939F93AF93CA
S11302E0BF93EF93FF93E091CF01F091D00130974A
S11302F009F00995FF91EF91BF91AF919F918F9173
S11303007F916F915F914F913F912F910F900FBE0D
S11303100F901F9018951F920F920FB60F921124F1
S11303202F933F934F935F936F937F938F939F93F9
S1130330AF93BF93EF93FF93E091CD01F091CE0182
S1130340309709F00995FF91EF91BF91AF919F917B
S11303508F917F916F915F914F913F912F910F906A
S11303600FBE0F901F901895991B79E004C0991F38
S1130370961708F0961B881F7A95C9F780950895FB
S1130380AA1BBB1B51E107C0AA1FBB1FA617B707B7
S113039010F0A61BB70B881F991F5A95A9F78095D3
S11303A09095BC01CD010895EE0FFF1F0590F491C7
S10B03B0E02D0994F894FFCF3D
S10B03B8000103070A101623DB
S9030000FC
