:100000000C9437000C945F000C945F000C945F001C
:100010000C945F000C945F000C945F000C945F00E4
:100020000C945F000C945F000C945F000C94190812
:100030000C945F000C945F000C94E2070C945F003A
:100040000C945F000C945F000C945F000C945F00B4
:100050000C945F000C945F000C945F000C945F00A4
:100060000C945F000C945F0025078307D5071124CB
:100070001FBECFEFD8E0DEBFCDBF11E0A0E0B1E002
:10008000E6EEF0E102C005900D92A233B107D9F778
:1000900021E0A2E3B1E001C01D92AC3FB207E1F75D
:1000A00010E0C7E3D0E004C02197FE010E946B0876
:1000B000C433D107C9F70E943F050C9471080C9412
:1000C0000000CF93DF93CDB7DEB782E391E0DF91FD
:1000D000CF910895CF93DF93CDB7DEB781E890E05D
:1000E00021E830E0F9012081287FFC01208384E8A9
:1000F00090E0FC01118210820000DF91CF91089501
:10010000CF93DF93CDB7DEB781E890E021E830E010
:10011000F90120812160FC0120830000DF91CF9153
:100120000895CF93DF9300D000D01F92CDB7DEB7F4
:100130009A8389837C836B834D8388E890E029814F
:100140003A81FC01318320838B819C819093FB0158
:100150008093FA018FE690E02FE630E0F9012081EC
:100160002260FC01208378948D81882349F080E807
:1001700090E020E830E0F90120812260FC0120833A
:1001800000000F900F900F900F900F90DF91CF9184
:100190000895CF93DF9300D0CDB7DEB79A838983DC
:1001A0008FE590E0FC01208189819A81FC01208308
:1001B000F89400000F900F90DF91CF910895CF93A6
:1001C000DF9300D0CDB7DEB79A8389838FE590E0C7
:1001D00029813A81F9012081FC01208300000F90E0
:1001E0000F90DF91CF910895CF93DF93CDB7DEB716
:1001F00087E290E027E230E0F9012081277CFC01D2
:10020000208388E290E028E230E0F9012081286331
:10021000FC0120838BE290E0FC01108285E290E0FB
:1002200025E230E0F90120812E7FFC0120838AE263
:1002300090E02FEFFC01208384E290E024E230E0A4
:10024000F90120812160FC0120830000DF91CF9122
:100250000895CF93DF9300D0CDB7DEB79A8389831B
:1002600089819A812AE0FC01322F11923A95E9F7AF
:1002700089819A81FC0112861386148615860000F6
:100280000F900F90DF91CF910895CF93DF9300D01F
:1002900000D01F92CDB7DEB79B838A837D836C83AA
:1002A000198289818530E0F48981882F90E0298145
:1002B000222F30E04C815D81220F331F240F351F28
:1002C000F901208131814A815B81880F991F840F58
:1002D000951FFC013183208389818F5F8983E1CF62
:1002E0008C819D81FC0182859385A485B5852A81B9
:1002F0003B81F90182879387A487B5878A819B8197
:100300000F900F900F900F900F90DF91CF91089565
:10031000CF93DF9300D0CDB7DEB79A8389838981ED
:100320009A810E94290189819A810E960E94290151
:1003300089819A814C960E94290189819A818A96A5
:100340000E94290189819A81C8960E942901898188
:100350009A818A5B9F4F0E94290189819A818C5AD8
:100360009F4F0E94290189819A818E599F4F0E9437
:10037000290189819A8180599F4F0E942901898191
:100380009A8182589F4F0E94290189819A818457BE
:100390009F4FFC01108289819A8183579F4FFC01F6
:1003A000108289819A8182579F4FFC011082000040
:1003B0000F900F90DF91CF910895CF93DF93CDB73A
:1003C000DEB727970FB6F894DEBF0FBECDBF809182
:1003D000D3018F5F8093D3018091D3018F7180937C
:1003E000D301CE010696BC0184E491E00E945F0532
:1003F0008983998181E08927882379F52E813F813E
:100400008091D301882F90E0865F9E4FFC01808110
:10041000882F90E0880F991F820F931FFC01808125
:1004200091819B838A838A818C838A819B81892F96
:10043000992781708D838BE290E02C81FC012083D1
:1004400085E290E025E230E0F9012081322F3E7F05
:100450002D81232BFC01208301C0000027960FB6BD
:10046000F894DEBF0FBECDBFDF91CF910895CF933B
:10047000DF9300D000D000D0CDB7DEB79B838A8356
:100480007D836C834E83198289818530C8F589818B
:10049000682F70E08981882F90E02A813B81880F46
:1004A000991F820F931FDC012D913C918E81882F23
:1004B00090E04981442F50E0E4E0F0E0DF01A41B2C
:1004C000B50BAD0102C0959587954A95E2F781700D
:1004D0009927892B19F08C819D8102C080E090E0E2
:1004E000282B392B4A815B81CB01880F991F840F00
:1004F000951FFC013183208389818F5F8983C4CF5D
:10050000000026960FB6F894DEBF0FBECDBFDF9178
:10051000CF910895CF93DF93CDB7DEB7EB970FB6AA
:10052000F894DEBF0FBECDBF84E491E00E943F0689
:10053000882309F0F9CFCE0108960E94290180E8AE
:100540009EE3A0E0B0E08A8B9B8BAC8BBD8BCE0191
:100550000896BC0184E491E00E945D068AE0E0E038
:10056000F1E0DE01569601900D928A95E1F71F8227
:10057000198281E08A8384E08B8389818F838981DA
:100580008C3119F48FE189830FC099818A81890F99
:1005900089838B8181508B838B81882329F484E02C
:1005A0008B838A81880F8A831C828C81853008F036
:1005B00058C0CE0180960E94290188EE93E0A0E009
:1005C000B0E08AA79BA7ACA7BDA71D829D818C81A7
:1005D0009817C0F48D81882F90E0880F991F9E0195
:1005E0002F5F3F4F820F931F4596FC012081318181
:1005F000CE0180964981B9010E9437028D818F5FBB
:100600008D83E4CF8C818E838E818530C0F48E8182
:10061000882F90E0880F991F9E012F5F3F4F820F18
:10062000931F4596FC0120813181CE0180964F8138
:10063000B9010E9437028E818F5F8E83E5CF84E4FB
:1006400091E00E943F06882309F0F9CFCE01809601
:10065000BC0184E491E00E945D068C818F5F8C83F5
:10066000A4CF89818F3109F088CF89818823D9F17E
:10067000CE018E960E942901CE018E9649816FEFA0
:1006800071E00E9437028981282F30E044E6429FC2
:10069000C001439F900D11249C0128513C4F89813A
:1006A000863018F488EB9BE002C080E090E0820F77
:1006B000931F092E000CAA0BBB0B88AF99AFAAAFF2
:1006C000BBAF84E491E00E943F06882309F0F9CF94
:1006D000CE018E96BC0184E491E00E945D06898182
:1006E00081508983C2CF0000EB960FB6F894DEBF2D
:1006F0000FBECDBFDF91CF910895CF93DF93CDB7DC
:10070000DEB788E590E0DF91CF910895CF93DF9336
:10071000CDB7DEB782E490E0DF91CF910895CF931B
:10072000DF93CDB7DEB78CE290E0DF91CF910895F3
:10073000CF93DF93CDB7DEB786E190E0DF91CF9125
:100740000895CF93DF93CDB7DEB780E090E0DF91DF
:10075000CF9108950F931F93CF93DF93CDB7DEB75B
:100760006B970FB6F894DEBF0FBECDBF19821B8208
:100770001A8281E091E0998B888B82E890E09B8BD4
:100780008A8B84E490E09D8B8C8B88E290E09F8B39
:100790008E8B80E190E0998F888F8A819B81883150
:1007A000934009F4E1C08981895F898392E289815C
:1007B000692F0E945008892F898381E099819923AC
:1007C00009F080E0882F90E02A813B81820F931FFF
:1007D0009B838A830E947D039C018A819B81820F77
:1007E000931F969587959C01A3EFB4E90E945C083E
:1007F00096958795929582958F7089279F70892706
:10080000865D9E4FFC0190818981891718F401E073
:1008100011E002C000E010E00E9486039C018A8182
:100820009B81820F931F969587959C01A3EFB4E956
:100830000E945C0896958795929582958F7089277E
:100840009F708927865D9E4FFC0190818981891761
:1008500018F482E890E002C080E090E0082B192BA9
:100860000E948F039C018A819B81820F931F969522
:1008700087959C01A3EFB4E90E945C089695879543
:10088000929582958F7089279F708927865D9E4FEC
:10089000FC0190818981891718F484E490E002C0FA
:1008A00080E090E0082B192B0E9498039C018A811C
:1008B0009B81820F931F969587959C01A3EFB4E9C6
:1008C0000E945C0896958795929582958F708927EE
:1008D0009F708927865D9E4FFC01908189818917D1
:1008E00018F488E290E002C080E090E0082B192B19
:1008F0000E94A1039C018A819B81820F931F969580
:1009000087959C01A3EFB4E90E945C0896958795B2
:10091000929582958F7089279F708927865D9E4F5B
:10092000FC0190818981891718F480E190E002C070
:1009300080E090E0802B912B9B8F8A8F8BE290E060
:100940002A8DFC01208385E290E025E230E0F90168
:100950002081422F4E7F2A8D3B8D232F33272170FC
:10096000242BFC01208319CF8BE290E02FEFFC01B8
:10097000208385E290E025E230E0F90120812160CA
:10098000FC0120831C821D821E821F828C819D811E
:10099000AE81BF81803A9648A140B10560F48C8158
:1009A0009D81AE81BF810196A11DB11D8C839D8368
:1009B000AE83BF83EBCF8FEF888788858823C1F113
:1009C0001A86198689859A85059770F51B868B8509
:1009D0008F3F21F19B858885981778F48BE290E012
:1009E0002FEFFC01208385E290E025E230E0F90161
:1009F00020812160FC0120830DC08BE290E0FC018E
:100A0000108285E290E025E230E0F90120812E7F1E
:100A1000FC0120838B858F5F8B87D9CF89859A8551
:100A200001969A878987CECF888581508887C5CFE0
:100A30008BE290E0FC01108285E290E025E230E05C
:100A4000F90120812E7FFC0120831C861D861E86D5
:100A50001F868C859D85AE85BF85803A9648A140CE
:100A6000B10508F083CE8C859D85AE85BF85019646
:100A7000A11DB11D8C879D87AE87BF87EACFCF931D
:100A8000DF93CDB7DEB760970FB6F894DEBF0FBE29
:100A9000CDBF84E491E09A8389830E94F4000E9490
:100AA000AA030E946A0041E06DED71E082E390E0EC
:100AB0000E9491000E9480000E948A02FDCFCF9385
:100AC000DF93CDB7DEB728970FB6F894DEBF0FBE21
:100AD000CDBF9A8389837C836B8389819A810E94AD
:100AE000D506882311F080E0C1C089819A8184579E
:100AF0009F4FDC018C91882F90E09C01C901880FE9
:100B0000991F9C01C901880F991F880F991F880F91
:100B1000991F821B930B29813A81280F391F8B81E2
:100B20009C81FC013183208389819A8184579F4F66
:100B3000DC018C91882F90E049815A819C01C90188
:100B4000880F991F9C01C901880F991F880F991F51
:100B5000880F991F821B930B840F951F0A96FC0127
:100B600080819181A281B381892B8A2B8B2BC9F53E
:100B700089819A8182579F4FDC018C912FEF280F3A
:100B800089819A8182579F4FFC01208389819A81B4
:100B900084579F4FDC018C9121E0280F89819A8135
:100BA00084579F4FFC01208389819A8184579F4FEE
:100BB000DC019C918DEC989F812D1124282F269586
:100BC00026952695822F880F282F220F220F820F1D
:100BD000292F281B89819A8184579F4FFC012083EC
:100BE00044C089819A8184579F4FDC018C91E82F02
:100BF000F0E049815A819F01C901880F991F9C012A
:100C0000C901880F991F880F991F880F991F821B90
:100C1000930B840F951F0A96DC012D913D914D9108
:100C20005C912D833E834F8358878D819E81AF8158
:100C3000B8850197A109B10969817A81AF019A014B
:100C4000220F331FA9019A01220F331F220F331FD6
:100C5000220F331F241B350B260F371F265F3F4FF4
:100C6000F90180839183A283B38381E028960FB634
:100C7000F894DEBF0FBECDBFDF91CF9108951F93D3
:100C8000CF93DF9300D01F92CDB7DEB79B838A83CB
:100C9000CE0101960E94C9008A819B810E94EB06C9
:100CA000182FCE0101960E94DF00812F0F900F9028
:100CB0000F90DF91CF911F9108951F93CF93DF93F2
:100CC00000D000D01F92CDB7DEB79B838A837D838F
:100CD0006C83CE0101960E94C9008A819B810E948B
:100CE000EB06882311F010E052C08A819B81835764
:100CF0009F4FFC01208131E0320F8A819B81835715
:100D00009F4FFC013083822F90E09C01C901880F26
:100D1000991F9C01C901880F991F880F991F880F7F
:100D2000991F821B930B2A813B81820F931F2C8179
:100D30003D81B9010E9445018A819B8182579F4F65
:100D4000FC01808121E0280F8A819B8182579F4F7F
:100D5000FC0120838A819B8183579F4FFC019081F6
:100D60008DEC989F812D1124282F26952695269568
:100D7000822F880F282F220F220F820F292F281B46
:100D80008A819B8183579F4FFC01208311E0CE0114
:100D900001960E94DF00812F0F900F900F900F900F
:100DA0000F90DF91CF911F910895CF93DF9300D0E3
:100DB000CDB7DEB79A83898389819A8182579F4F05
:100DC000FC01908181E0992309F080E00F900F9061
:100DD000DF91CF910895CF93DF9300D0CDB7DEB7E9
:100DE0009A83898389819A8182579F4FFC019081E0
:100DF00081E09A3009F080E00F900F90DF91CF9161
:100E00000895CF93DF9300D000D0CDB7DEB79A839B
:100E100089837C836B8389819A81019771F48B81AB
:100E20009C81019651F40E9461009093430180934C
:100E3000420184E491E00E94880100000F900F902D
:100E40000F900F90DF91CF910895CF93DF93CDB79F
:100E5000DEB76FEF7FEF81E090E00E940107DF9146
:100E6000CF910895CF93DF9300D0CDB7DEB79A83AB
:100E7000898389819A81FC01108289819A81FC0190
:100E8000118289819A81FC01128289819A81FC01F7
:100E9000138289819A81FC01158289819A81FC01E2
:100EA0001682FC011782FC011086FC011186FC01F0
:100EB0001286FC011386FC011486FC0115860000D5
:100EC0000F900F90DF91CF910895CF93DF9300D0D3
:100ED00000D0CDB7DEB79A8389837C836B83898109
:100EE0009A81019741F48B819C81019621F484EDD4
:100EF00091E00E94320700000F900F900F900F902A
:100F0000DF91CF910895CF93DF93CDB7DEB76FEF29
:100F10007FEF81E090E00E946507DF91CF91089517
:100F2000CF93DF9300D0CDB7DEB79A8389838981D1
:100F30009A81FC01148689819A81FC011586FC0145
:100F40001686FC011786FC01108AFC01118AFC013F
:100F5000128AFC01138AFC01148A89819A81FC019E
:100F6000158A00000F900F90DF91CF910895CF93D5
:100F7000DF9300D000D0CDB7DEB79A8389837C831E
:100F80006B8389819A81019741F48B819C810196C1
:100F900021F482EE91E00E94900700000F900F90E4
:100FA0000F900F90DF91CF910895CF93DF93CDB73E
:100FB000DEB76FEF7FEF81E090E00E94B707DF912F
:100FC000CF9108951F920F9200905F000F9211240D
:100FD0002F933F934F935F936F937F938F939F9341
:100FE000AF93BF93EF93FF93CF93DF93CDB7DEB76C
:100FF0008091F8019091F901892B31F08091F801ED
:101000009091F901FC0109950000DF91CF91FF91CA
:10101000EF91BF91AF919F918F917F916F915F9170
:101020004F913F912F910F9000925F000F901F9072
:1010300018951F920F9200905F000F9211242F932A
:101040003F934F935F936F937F938F939F93AF9350
:10105000BF93EF93FF93CF93DF93CDB7DEB780912C
:10106000FA019091FB01892B31F08091FA01909166
:10107000FB01FC0109950000DF91CF91FF91EF91F9
:10108000BF91AF919F918F917F916F915F914F91A0
:101090003F912F910F9000925F000F901F90189535
:1010A000991B79E004C0991F961708F0961B881FBA
:1010B0007A95C9F780950895A29FB001B39FC001AA
:1010C000A39F700D811D1124911DB29F700D811D74
:1010D0001124911D0895EE0FFF1F0590F491E02D4E
:0610E0000994F894FFCF13
:1010E60001018200440028001000000100020001F6
:1010F60000030001000200010004000100020001DB
:1011060000030001000200010000000103070A10AD
:0211160016239E
:00000001FF
