:100000000C9437000C945F000C945F000C945F001C
:100010000C945F000C945F000C945F000C945F00E4
:100020000C945F000C945F000C945F000C947708B4
:100030000C945F000C945F000C944E080C945F00CD
:100040000C945F000C945F000C945F000C945F00B4
:100050000C945F000C945F000C945F000C945F00A4
:100060000C945F000C945F0042074907410811247B
:100070001FBECFEFD8E0DEBFCDBF11E0A0E0B1E002
:10008000E0E2F6E102C005900D92A23FB107D9F778
:1000900022E0A2EFB1E001C01D92AD32B207E1F75C
:1000A00010E0C7E3D0E004C02197FE010E94080BD6
:1000B000C433D107C9F70E94C7050C940E0B0C94EA
:1000C00000002F923F924F925F926F927F928F9299
:1000D0009F92AF92BF92CF92DF92EF92FF920F93D7
:1000E0001F93CF93DF9300D000D01F92CDB7DEB720
:1000F0004C016983B42FE2EFF1E0462F50E05B83BF
:100100004A836B2F722FD4018C9185B980E090E0E7
:10011000A5E6B9E01197F1F7019686349105C1F78C
:10012000F89420803180428053806480758096816D
:1001300027817894B62FA72F9D832C83AA23F9F0CB
:10014000F894208131814281538164817581868157
:1001500097817894A22CB32CC42CD52CE62CF72CA8
:100160000D811C810E94EA0AAA2EB12CC12CD12C2F
:10017000E12CF12C00E010E00E94F30AA8F589B10F
:1001800080958B2399F529B189B1817099B19270CD
:1001900022FF2EC0882319F09111D0CF16C06B2FEB
:1001A0007A2FD4018C912FEF30E0281B3109AA81DE
:1001B000BB812A173B0724F44FEFD4014C93A3CF04
:1001C000A9818A0FD4018C939ECF6B2F7A2FD401F3
:1001D0008C91B9818B1718F4D4011C9294CFB981FA
:1001E0008B1BD4018C938FCF80E003C080E001C0D3
:1001F00081E00F900F900F900F900F90DF91CF91B3
:100200001F910F91FF90EF90DF90CF90BF90AF9034
:100210009F908F907F906F905F904F903F902F9026
:10022000089587B18F6187B918B88AB11AB88FEF6E
:100230008BB984B915B80895E0E0F1E020EF31E022
:100240008FEF80833C96E217F307D9F708956F92FA
:100250007F928F929F92AF92BF92CF92DF92EF9256
:10026000FF920F931F93CF93DF93C0E0D1E00F2E47
:10027000F0EF6F2EF1E07F2EF02D8091F0018823BA
:1002800009F470C088818F3F09F46CC0E0910302CB
:10029000F0910402F894208131814281538164817C
:1002A00075818681978178946894AA24A7F80F2E87
:1002B000F1E5BF2EF02DCC24C394D12CE12CF12CF0
:1002C00000E010E00E945D0A0F2EFCE3AF2EF02D3F
:1002D000B12CC12C0E945F0AA22EB32E8A819B8171
:1002E0008A159B0509F03EC0E0910302F0910402DB
:1002F000F8942081318142815381648175818681A6
:1003000097817894AC80BD80CE80DF80E884F984CA
:100310000A851B850E94F30A29F120F14981688131
:1003200083E192E00E945907E0910302F0910402F8
:10033000F894208131814281538164817581868165
:100340009781789420523E4F4F4F5F4F6F4F7F4FB2
:100350008F4F9F4F2C833D834E835F8368877987C0
:100360008A879B872C96C615D70509F086CFDF9123
:10037000CF911F910F91FF90EF90DF90CF90BF90A2
:10038000AF909F908F907F906F900895CF93DF9361
:1003900000D0CDB7DEB74B99E4C08FEF85B928E028
:1003A00041E050E060E070E00EC0DB01CA01022EC7
:1003B00004C0880F991FAA1FBB1F0A94D2F781504F
:1003C00085B9222319F080E090E02BC020E0822F35
:1003D0008170819585B980E090E0E5E6F9E031979C
:1003E000F1F7019689319105C1F72F5F203179F737
:1003F000E0910302F0910402F894708161815281CE
:10040000438134812581968187817894E3E1F2E00C
:10041000758766875787408B318B228B938B848BB4
:10042000ABC0E5E6F9E03197F1F701968832910526
:10043000C1F721504B9BB9CF94C0E5E6F9E0319765
:10044000F1F701968E319105C1F78EC020E0822F21
:100450008170819585B980E090E0E5E6F9E031971B
:10046000F1F7019689319105C1F72F5F203179F7B6
:1004700083C0822F8170839F802D112485B980E0F5
:1004800090E0E5E6F9E03197F1F701968E319105BC
:10049000C1F789B18095887E09F06EC02F5F2A3040
:1004A00041F719822EE148EE61E0CE0101960E94EB
:1004B0006100882309F460C08981833098F020E0CE
:1004C000822F8170819585B980E090E0E5E6F9E0C2
:1004D0003197F1F7019689319105C1F72F5F2031EE
:1004E00079F74AC020E030E041E050E0C901877070
:1004F0009927BA0102C0660F771F8A95E2F765B99E
:1005000080E090E0E5E6F9E03197F1F701968E3171
:100510009105C1F789B18095887E71F52D5F3F4FB8
:100520002831310519F78FE08A832EE148EE61E02A
:10053000CE0102960E9461008823F1F04A81698110
:1005400083E192E00E9459078FEF85B980E090E047
:10055000E5E6F9E03197F1F70196883C9105C1F79E
:100560000BC080E090E069CF80911F02863009F4D3
:100570006DCF20E030EE7DCF0F900F90DF91CF91C7
:1005800008952F923F924F925F926F927F928F9237
:100590009F92AF92BF92CF92DF92EF92FF920F9312
:1005A0001F93CF93DF9348991AC18FEF85B928E045
:1005B00041E050E060E070E00EC0DB01CA01022EB5
:1005C00004C0880F991FAA1FBB1F0A94D2F781503D
:1005D00085B9222319F080E090E0F6C020E0822F58
:1005E0008170819585B980E090E0C5E6D9E02197DA
:1005F000F1F7019689319105C1F72F5F203179F725
:10060000E0910302F0910402F8942081318142814B
:10061000538164817581868197817894A4E10E94D9
:10062000DE0A422E532E642E752E862E972E282EED
:10063000A92FB8E333243394E1E0F0E08091F00196
:10064000282F220F220F220F281B8091F1018B9F50
:10065000802D1124282B2068C0910302D091040220
:10066000F894388149814A814B814C814D814E817A
:100670008F817894832F8170829F202D112425B93A
:10068000489938C08091F00183258093F00121E0E2
:1006900030E0CF01022E02C0880F991F0A94E2F7C2
:1006A000815085B980E090E0C5E6D9E02197F1F767
:1006B00001968A309105C1F72F5F3F4F29303105F0
:1006C00041F7C0910302D0910402F8942881398146
:1006D0004A815B816C817D818E819F817894A4E1C8
:1006E0000E94DE0A422E532E642E752E862E972EE1
:1006F000282EA92F499938C08091F1018325809334
:10070000F10121E030E0CF01022E02C0880F991FD5
:100710000A94E2F7815085B980E090E0C5E6D9E01F
:100720002197F1F701968A309105C1F72F5F3F4F6E
:100730002930310541F7C0910302D0910402F894A9
:10074000288139814A815B816C817D818E819F8185
:100750007894A4E10E94DE0A422E532E642E752E58
:10076000862E972E282EA92F4F9B1BC0C0910302C7
:10077000D0910402F894288139814A815B816C818F
:100780007D818E819F817894A42CB52CC62CD72C8A
:10079000E82CF92C022D1A2F0E94F30A09F008F414
:1007A0004DCF20E0822F8170819585B980E090E067
:1007B000E5E6F9E03197F1F7019689319105C1F746
:1007C0002F5F203179F70BC0C5E6D9E02197F1F70B
:1007D000019688329105C1F72150489BEECEDF91FA
:1007E000CF911F910F91FF90EF90DF90CF90BF902E
:1007F000AF909F908F907F906F905F904F903F90C1
:100800002F90089589B190E0880F892F881F990B48
:100810009195892B61F480910602882329F0E5E007
:10082000F2E08081815080831092060208954E99F3
:1008300037C080910602811105C0E5E0F2E08081B9
:100840008F5F8083E5E0F2E081E08183F894A2EF9E
:10085000B1E02C9111963C91119712964C91129700
:1008600013965C91139714966C91149715967C913E
:10087000159716968C91169717969C9178942058F8
:100880003F484F4F5F4F6F4F7F4F8F4F9F4F268394
:100890003783408751876287738784879587089558
:1008A0004D9943C080910602811105C0E5E0F2E058
:1008B00080818F5F8083E5E0F2E081E08183F894BE
:1008C000A2EFB1E02C9111963C91119712964C91A8
:1008D000129713965C91139714966C911497159632
:1008E0007C91159716968C91169717969C917894F3
:1008F00020583F484F4F5F4F6F4F7F4F8F4F9F4F55
:1009000026833783408751876287738784879587DB
:10091000439A8581882329F088B1887F88B910920D
:100920000A0281E08093070208954C9952C0809199
:10093000280281115BC0909102029F5F8BEA989F11
:10094000812D112486958695282F220F820F880FDE
:10095000981B9093020288B1887F88B98091020227
:1009600080FF41C096B1977079F48695833060F42A
:1009700048B121E030E0B90102C0660F771F8A95C7
:10098000E2F7CB01842B88B9E0910302F0910402D5
:10099000F8942081318142815381648175818681FF
:1009A00097817894E3E1F2E0ACE30E94DE0A2587C8
:1009B00036874787508B618B728B838B948B13C0E8
:1009C000E5E6F9E03197F1F7019686349105C1F734
:1009D00008954B9903C00E94C60108954A9906C024
:1009E0000E94C102089580E090E0EACF08953F920E
:1009F0004F925F926F927F928F929F92AF92BF922F
:100A0000CF92DF92EF92FF920F931F93CF93DF93DA
:100A1000E0910302F0910402F894B081C181D28187
:100A20009380848075806680F7817894E0910702D6
:100A3000EE2309F485C080910602811124C07BC099
:100A40002B2F217030E040E050E060E070E080E06B
:100A500090E0A0E00E94FC0AC1F4EE23C1F0809176
:100A60000602811116C0E1E02B2F237030E040E038
:100A700050E060E070E080E090E0A0E00E94FC0ABE
:100A800059F4E0E009C0E1E007C0E1E005C0E0E0C2
:100A900003C0E0E001C0E1E088B18F7EE295E07F35
:100AA000E82BE8B96894AA24A7F80F2EF1E5BF2E29
:100AB000F02DCC24C394D12CE12CF12C00E010E0DB
:100AC0002B2F3C2F4D2F592D682D772D862D9F2FA5
:100AD0000E945D0A322E432E542E652E762E872ECE
:100AE000982ED92F6894AA24A4F80F2EFEE0BF2ECA
:100AF000F02DC12C0E945F0AC22F232D342D452DCD
:100B0000562D672D782D892D9D2F0E945D0A0F2E61
:100B1000F2ECAF2EF02DBB24B3940E945F0A283074
:100B200008F027E0C83108F0C8E1CC0FCC0FCC0F9B
:100B30002C2B25B91AC080910A02811107C093CFCE
:100B400080910A0281117CCFE0E0A6CF2B2F21708B
:100B500030E040E050E060E070E080E090E0A0E055
:100B60000E94FC0A09F097CF7ACFDF91CF911F91B5
:100B70000F91FF90EF90DF90CF90BF90AF909F903C
:100B80008F907F906F905F904F903F9008950E945C
:100B900011010E941C0180910302909104020E94A5
:100BA0001A09E0E0F1E01082108E8FE081838AE084
:100BB000818F44EA51E05383428328E334E0338F4A
:100BC000228F82E084A380AB84AF8093480185E0CC
:100BD00085A381AB85AF8093490157A346A380EDE0
:100BE00092E093AB82AB84E893E097AF86AF30930B
:100BF0004B0120934A010F2EF5E08F2EF2E09F2E3D
:100C0000F02D0F2EF3E16F2EF2E07F2EF02DC2EFCC
:100C1000D1E0552453946894332437F868942224FF
:100C200026F80F2EF7E04F2EF02DF401858181116B
:100C300020C0F301858981111CC08091F1018111CF
:100C4000FDC017C0F4018381811113C05382128249
:100C5000439880818F5F808335B825B880E285B95D
:100C6000F0E1F5B988E085B9E4E0E5B9F2E0F5B97D
:100C700055B8F894288139814A815B816C817D81E6
:100C80008E819F8178946894AA24A5F80F2EFCE1A8
:100C9000BF2EF02DC12CD12CE12CF12C00E010E066
:100CA0000E945D0A283631404105510561057105F4
:100CB0008105910549F040F0F4018381882321F0FA
:100CC0001382808181508083F40181818823F1F037
:100CD000F894288139814A815B816C817D818E8184
:100CE0009F817894A680B780C084D184E284F38405
:100CF000048515850E94F30A49F040F0818188231C
:100D000019F0808181508083F4011182F401858182
:100D1000882309F460C08081811106C0439888B19E
:100D2000887F88B9158280C086B1877009F4419A9E
:100D3000F894288139814A815B816C817D818E8123
:100D40009F817894A0E50E94DE0AF401A480B12C72
:100D5000C12CD12CE12CF12C00E010E00E94EA0A19
:100D60000F2EF0E5AF2EF02D0E945D0AA3E10E9448
:100D7000FC0A11F008F058C0F40185818150858388
:100D8000339B02C0811102C0439A01C04398F8947A
:100D9000288139814A815B816C817D818E819F812F
:100DA0007894AAE30E94DE0A0F2EF0E5AF2EF02D14
:100DB000B12CC12CD12CE12CF12C00E010E00E94D0
:100DC0005D0AF4012483858181112EC0528288B18D
:100DD000887F88B929C0F4018081882309F44EC036
:100DE000339922C086B1877009F4419AF401458293
:100DF000F894288139814A815B816C817D818E8163
:100E00009F817894AAE30E94DE0A0F2EF0E5AF2EB0
:100E1000F02DB12CC12CD12CE12CF12C00E010E0F4
:100E20000E945D0AF4012483C3010E9479070E9495
:100E300027010E9402040E94F704F7CEF89428814B
:100E400039814A815B816C817D818E819F8178941B
:100E50006894AA24A5F80F2EFCE1BF2EF02DC12C1A
:100E6000D12CE12CF12C00E010E00E945D0AABE3F4
:100E70000E94FC0A09F008F4E5CEFBCE4398F40189
:100E80001282D2CF82EF91E090930402809303020A
:100E90000895E5E0F2E01082118212821382158239
:100EA000168217821086118612861386148615867E
:100EB0000895DC011C968C911C978630C9F05596DC
:100EC0009C915597911105C0E5E0F2E090819F5FFC
:100ED0009083E82FF0E0EE0FFF1FEA0FFB1F418326
:100EE00060838F5F1C968C931C9781E055968C9342
:100EF00008954F925F926F927F928F929F92AF92DE
:100F0000BF92CF92DF92EF92FF920F931F93CF93F6
:100F1000DF93FC0180910702882309F4A1C086B108
:100F20008770B1F1F894A2EFB1E02C9111963C9149
:100F3000119712964C91129713965C9113971496F1
:100F40006C91149715967C91159716968C9116971F
:100F500017969C917894A584B684C784D088E1883C
:100F6000F288038914890E94F30A09F008F478C012
:100F700088B1887F88B98485811172C0858988236A
:100F800029F0A5E0B2E08C9181508C93158A68C05D
:100F90008485882309F464C086B1877069F4208150
:100FA000233050F438B181E090E002C0880F991FDF
:100FB0002A95E2F7832B88B9F894A2EFB1E06C9000
:100FC00011967C90119712968C90129713969C9084
:100FD00013971496DC9114971596CC911597169645
:100FE0004C90169717965C907894218130E040E001
:100FF00050E060E070E080E090E002E00E94BC0A17
:10100000A22EB32EC42ED52EE62EF72EA82F192FE2
:1010100004E00E94BC0A0A2F0E94EA0AA62CB72C00
:10102000C82CD92CED2EFC2E042D152D0E94D50A8E
:10103000258736874787508B618B728B838B948B88
:10104000DF019F01265F3F4F12968D919C91139770
:101050008D939D93A217B307B9F784858150848738
:10106000DF91CF911F910F91FF90EF90DF90CF9084
:10107000BF90AF909F908F907F906F905F904F90B8
:101080000895E3E1F2E01486158616861786108A25
:10109000118A128A138A148A158A08951F920F9250
:1010A0000FB60F9211242F933F934F935F936F933B
:1010B0007F938F939F93AF93BF93EF93FF93E091B1
:1010C0002B02F0912C02309709F00995FF91EF91D6
:1010D000BF91AF919F918F917F916F915F914F9150
:1010E0003F912F910F900FBE0F901F9018951F9258
:1010F0000F920FB60F9211242F933F934F935F934C
:101100006F937F938F939F93AF93BF93EF93FF93CF
:10111000E0912902F0912A02309709F00995FF9198
:10112000EF91BF91AF919F918F917F916F915F915F
:101130004F913F912F910F900FBE0F901F901895D8
:10114000AF92BF92CF92DF92EF92FF920F931F93D5
:10115000CF93DF93E2EFF1E020853185428553851F
:10116000648575858685978530584F4F5F4F6F4FE3
:101170007F4F8F4F9F4F20873187428753876487E8
:101180007587868797872085318542855385648555
:101190007585868597852A3D3D4A4E4051056105F6
:1011A000710581059105B1F0A8F0E2EFF1E0208131
:1011B0003181428153816481758186819781A1E06B
:1011C0000E94DE0A208331834283538364837583C4
:1011D00086839783C2EFD1E0288539854A855B8570
:1011E0006C857D858E859F850F2EFBEDAF2EF02DB6
:1011F0000F2EFDEABF2EF02D0F2EFEE0CF2EF02D8C
:10120000D12CE12CF12C00E010E00E945D0A28872F
:1012100039874A875B876C877D878E879F87DF91B9
:10122000CF911F910F91FF90EF90DF90CF90BF90E3
:10123000AF9008953F924F925F926F927F928F92FC
:101240009F92AF92BF92CF92DF92EF92FF920F9355
:101250001F93CF93DF9300D0CDB7DEB74C01DC01F5
:101260001C9211961C92119712961C92129713962B
:101270001C92139714961C92149715961C9215970E
:1012800016961C92169717961C928CE089838EE115
:101290008A8320E030E061E070E051E0E0E0CB01E3
:1012A000022E02C0880F991F0A94E2F7452F811180
:1012B0004E2F841B85B980E090E0A5E6B9E0119738
:1012C000F1F7019688329105C1F72F5F3F4F293022
:1012D000310529F780E090E0E5E6F9E03197F1F794
:1012E0000196883C9105C1F788EF85B980E090E0D0
:1012F000A5E6B9E01197F1F701968C32B1E09B07B2
:10130000B9F720E040E061E0CE0101960E94610063
:1013100087E085B980E090E0E5E6F9E03197F1F704
:1013200001968C32F1E09F07B9F720E040E065E0DC
:10133000CE0102960E94610099818BEA989F812DCF
:10134000112482958F7028E1829F9019112499832E
:101350009A8189E8989F812D1124829586958770BE
:10136000ACE38A9F901911249A838FEF85B980E0AE
:1013700090E0E5E6F9E03197F1F70196883C9105B8
:10138000C1F715B8298130E040E050E060E070E03E
:1013900080E090E004E00E94BC0AA22EB32EC42E8E
:1013A000D52EE62EF72EE82F192F0E94BC0A0E2FFD
:1013B0000E94EA0AA22EB32EC42ED52EE62EF72EB8
:1013C000E82F192F04E00E94BC0A0E2F0E94EA0A9F
:1013D000322E432E542E652E762EB72FA82FF92F9E
:1013E0002A8130E040E050E060E070E080E090E092
:1013F00002E00E94BC0AA22EB32EC42ED52EE62EE9
:10140000F72EE82F192F04E00E94BC0A0E2F0E942D
:10141000EA0AA22EB32EC42ED52EE62EF72E082FC2
:10142000192F232D342D452D562D672D7B2F8A2FD7
:101430009F2F0E94D50AD4012C9311963C931197AB
:1014400012964C93129713965C93139714966C9381
:10145000149715967C93159716968C931697179656
:101460009C9385B5887F85BD16BC80E287BD80EAE8
:1014700098E090932C0280932B02EEE6F0E08081BE
:1014800082608083789484B5826084BD85B58560F0
:1014900085BD0F900F90DF91CF911F910F91FF901D
:1014A000EF90DF90CF90BF90AF909F908F907F9004
:1014B0006F905F904F903F900895689401C0E894BA
:1014C0008F929F92CF93DF930E946B0ADF91CF910F
:1014D0009F908F90089588249924F401E401B0E44A
:1014E0009F93AA279A158B049C04ED05FE05CF0552
:1014F000D007A10798F4AD2FDC2FCF2FFE2FE92DB9
:10150000982C892E982F872F762F652F542F432FB5
:10151000322F2227B85031F7BF9127C01B2EBF9121
:10152000BB27220F331F441F551F661F771F881FBD
:10153000991F881C991CEE1FFF1FCC1FDD1FAA1FBF
:10154000BB1F8A149B04EC05FD05CE05DF05A00733
:10155000B10748F08A189B08EC09FD09CE09DF099C
:10156000A00BB10B21601A94E1F62EF49401AF01A7
:10157000BE01CD01000C08950F93083090F0982F14
:10158000872F762F652F542F432F322F2227085075
:10159000F4CF220F331F441F551F661F771F881F6C
:1015A000991F0A95B2F70F9108952A0D3B1D4C1D06
:1015B0005D1D6E1D7F1D801F911F08950024A7FDD6
:1015C00000942A0F301D401D501D601D701D801D90
:1015D000901D08952A193B094C095D096E097F0980
:1015E000800B910B08952A153B054C055D056E0592
:1015F0007F058007910708950024A7FD00942A170E
:10160000300540055005600570058005900508957A
:10161000EE0FFF1F0590F491E02D0994F894FFCF91
:10162000FF0100000000000000000000FF010000BA
:101630000000000000000000FF01000000000000AA
:1016400000000000FF01000000000000000000009A
:10165000FF0100000000000000000000FF0100008A
:101660000000000000000000FF010000000000007A
:1016700000000000FF01000000000000000000006A
:10168000FF0100000000000000000000FF0100005A
:101690000000000000000000FF010000000000004A
:1016A00000000000FF01000000000000000000003A
:1016B000FF0100000000000000000000FF0100002A
:1016C0000000000000000000FF010000000000001A
:1016D00000000000FF01000000000000000000000A
:1016E000FF0100000000000000000000FF010000FA
:1016F0000000000000000000FF01000000000000EA
:1017000000000000FF0100000000000000000000D9
:021710000101D5
:00000001FF
